:100000000C94D3000C94DD070C94B6070C948F0766
:100010000C9468070C94FB000C94FB000C944107B3
:100020000C94FB000C94FB000C94AF040C941E0584
:100030000C94FB000C94FB000C94FB000C94FB0054
:100040000C94FB000C94FB000C94FB000C94FB0044
:100050000C94FB000C94FB000C94FB000C94040823
:100060000C94FB000C94FB000C94FB000C94FB0024
:100070000C94FB000C94FB000C94FB000C94FB0014
:100080000C94FB000C94FB000C94FB000C94FB0004
:100090000C94FB000C94FB000C94FB000C94FB00F4
:1000A0000C94FB000C94FB000C94FB00000000007F
:1000B000240027002A002D00300000000000250049
:1000C00028002B002E003100080B00020202010064
:1000D00009040000010202000005240010010524AB
:1000E000010101042402060524060001070581031D
:1000F00010004009040100020A0000000705020286
:1001000040000007058302400000040309041201B7
:100110000002EF0201404123368000010102030189
:1001200041726475696E6F204C4C430055534220F8
:10013000494F20426F6172640000000000230026D6
:100140000029002C002F0004040404040304050209
:100150000202020403020202020606060606060462
:10016000040202020404040802011040804010202E
:10017000408040800802040180402010020110806D
:1001800010204040200000000200090F000003047E
:1001900001000C0000000000000000000000000052
:1001A000000000004E0811241FBECFEFDAE0DEBFD2
:1001B000CDBF11E0A0E0B1E0E6E2F2E102C00590BF
:1001C0000D92A233B107D9F721E0A2E3B1E001C05B
:1001D0001D92A13AB207E1F710E0C3EDD0E004C0F0
:1001E0002197FE010E940B09C23DD107C9F70E9469
:1001F00063080C9408090C9400008FE393E090933B
:10020000130180931201E9E6F0E080818F7C806128
:100210008083EA9A0895FC018091A001882311F15E
:100220003FB7F89482E08093E9002091F200822F9A
:1002300090E01816190614F481E090E0882339F054
:10024000289844E640939F014091F1004083222387
:1002500039F02091F200211103C02BE62093E80031
:100260003FBF08958FEF9FEF08952FB7F89483E075
:100270008093E9009091E800892F807295FF04C077
:100280009091F20080E4891B2FBF0895CF93DF93F4
:100290001F92CDB7DEB76983DC01ED91FC9102803E
:1002A000F381E02D41E050E0BE016F5F7F4F099583
:1002B0000F90DF91CF91089583E08093E9008091C2
:1002C000F200882319F08AE38093E80008950E94E1
:1002D000350190E00895CF93DF931F92CDB7DEB73D
:1002E000FC018485958597FD08C02FEF3FEF35878A
:1002F00024870F90DF91CF910895CE0101960E943F
:100300000B01019719F4898190E0F3CF8FEF9FEFF4
:10031000F0CF0F931F93CF93DF931F92CDB7DEB72C
:100320008C01FC018485958597FF0BC0CE01019659
:100330000E940B01019771F4898190E0F801958783
:100340008487F801848595850F90DF91CF911F9167
:100350000F9108958FEF9FEFF1CFFC018485958574
:1003600097FD0BC09FB7F89482E08093E9008091DD
:10037000F2009FBF90E0019608959FB7F89482E045
:100380008093E9008091F2009FBF90E008958091F2
:10039000450181110DC082E08093410184E080938A
:1003A0004201109244011092430181E08093450183
:1003B00081E491E0089540913D0150913E012091EA
:1003C0003B0130913C0142175307B4F49091E8008F
:1003D0009570E1F39091E80092FD19C08093F100CF
:1003E00080913D0190913E0101968F739927892B51
:1003F00019F48EEF8093E80080913D0190913E01C9
:10040000019690933E0180933D0181E0089580E044
:100410000895EF92FF920F931F93CF93DF93F82EDF
:10042000192FE62E042F81E0860F880F0E94DB0132
:1004300083E00E94DB01CF2DD12FEC0EFD2EF11CAD
:10044000CE15DF05B9F007FF13C0FE0184910E94AD
:10045000DB01182F80E00E94DB01812321968111AE
:10046000EFCFDF91CF911F910F91FF90EF90089503
:100470008881EDCF81E0F5CFDF92EF92FF920F936D
:100480001F93CF93DF93D82E8A01EB017B01E40EFB
:10049000F51ECE15DF0559F0D7FE12C0FE0184917E
:1004A0000E94DB0121968111F4CF0FEF1FEFC801ED
:1004B000DF91CF911F910F91FF90EF90DF90089502
:1004C0008881EECF0F931F93CF93DF931F92CDB709
:1004D000DEB782E0898342E450E068EC70E080E8B7
:1004E0000E943C020E94C701DC0112960D911C91F2
:1004F0000115110589F0D801ED91FC910280F3817D
:10050000E02DBE016F5F7F4FC801099597FD04C0C4
:10051000F80100851185ECCF89810F90DF91CF9193
:100520001F910F910895615030F02091F100FC016E
:1005300020830196F8CF289884E680939F01089540
:10054000089581508F3008F047C0E82FF0E0E5555E
:10055000FD4F0C940B09C802CC02BA02C002C402BF
:10056000EC02EC02EC02CF02D502D902DD02E3027A
:10057000EC02E702809180008F77809380000895DD
:10058000809180008F7DF9CF80918000877FF5CFAB
:1005900084B58F7784BD089584B58F7DFBCF80911E
:1005A00090008F77809390000895809190008F7DC8
:1005B000F9CF80919000877FF5CF8091C0008F7731
:1005C0008093C00008958091C0008F7DF9CF809105
:1005D000C200877F8093C2000895CF93DF93EEE837
:1005E000F1E08491EFE6F1E0D491E0E5F1E0C4912F
:1005F000CC23A1F081110E94A102EC2FF0E0EE0FBC
:10060000FF1FE75CFE4FA591B491EC91ED2381E0D3
:1006100090E009F480E0DF91CF91089580E090E0D0
:10062000FACF1F93CF93DF93162F282F30E0F901D5
:10063000EB57FE4F8491F901EA59FE4FD491F9012D
:10064000E95BFE4FC491CC23A1F081110E94A1026D
:10065000EC2FF0E0EE0FFF1FE654FF4FA591B49191
:100660008FB7F894EC91111108C0D095DE23DC937C
:100670008FBFDF91CF911F910895DE2BF8CF61E0FE
:1006800082E00E94110361E083E00E94110361E0B7
:1006900084E00E941103F3CFCF93DF9390E0FC013D
:1006A000EA59FE4F2491895B9E4FFC018491882377
:1006B000D1F090E0880F991FFC01E455FF4FA59100
:1006C000B491FC01E654FF4FC591D49161110EC065
:1006D0009FB7F8948C91E22FE0958E238C9328811C
:1006E000E223E8839FBFDF91CF9108958FB7F894FD
:1006F000EC91E22BEC938FBFF6CF789484B58260B7
:1007000084BD84B5816084BD85B5826085BD85B5B5
:10071000816085BDEEE6F0E0808181608083E1E864
:10072000F0E010828081826080838081816080839C
:10073000E0E8F0E0808181608083E1E9F0E08081A1
:1007400082608083808181608083E0E9F0E0808145
:1007500081608083E1ECF0E080818460808380812F
:1007600082608083808181608083E3ECF0E080811F
:1007700081608083E0ECF0E0808182608083E2EC45
:10078000F0E0808181608083EAE7F0E0808184602E
:10079000808380818260808380818160808380818A
:1007A0008068808308953FB7F894809137019091D5
:1007B0003801A0913901B0913A0126B5A89B05C036
:1007C0002F3F19F00196A11DB11D3FBFBA2FA92FD0
:1007D000982F8827BC01CD01620F711D811D911DCD
:1007E00042E0660F771F881F991F4A95D1F7089539
:1007F0008F929F92AF92BF92CF92DF92EF92FF9231
:100800004B015C010E94D3036B017C010E94D30366
:100810006C197D098E099F09683E73408105910519
:10082000A8F321E0821A9108A108B10888EEC80E49
:1008300083E0D81EE11CF11C81149104A104B104D1
:1008400029F7FF90EF90DF90CF90BF90AF909F90EF
:100850008F9008958F929F92AF92BF92CF92DF9226
:10086000EF92FF920F931F93CF93DF936C017B0165
:100870008A0180910D01882309F45CC08091A00158
:10088000882309F457C080914E0180FF05C08091F4
:10089000E00082608093E000E801B12C8AEFA82E8E
:1008A00093E0892E2AE3922E209711F4BB20D9F1F0
:1008B0000E94350181110AC0AA94AA20D9F161E0F1
:1008C00070E080E090E00E94F803EECF8C171D06E8
:1008D00011F00CF08C2F9FB7F8948092E9002091D2
:1008E000E80025FD02C09FBFDFCF282F30E0C21BEC
:1008F000D30BF701815020F041914093F100FACFE2
:10090000E20EF31EBB2021F09092E800B12CEBCF59
:100910008091E80085FDE7CF9092E800BB24B39476
:10092000209709F3F3CF5D9884E680934D0110166C
:1009300011063CF081E090E0F6019383828310E0A1
:1009400000E0C801DF91CF911F910F91FF90EF90D0
:10095000DF90CF90BF90AF909F908F9008951F929F
:100960000F920FB60F9211248F939F938091E10005
:100970009091E100937F9093E10083FF0FC010926C
:10098000E90091E09093EB001092EC0092E39093D9
:10099000ED001092A00198E09093F00082FF22C039
:1009A00093E09093E9009091F200992319F09AE373
:1009B0009093E80090914D01992341F090914D0161
:1009C000915090934D01911101C05D9A90919F01BA
:1009D000992341F090919F01915090939F01911123
:1009E00001C0289A84FF18C08091E2008E7E816049
:1009F0008093E2008091E1008F7E8093E1008091FE
:100A00004E018E7E806180934E019F918F910F9059
:100A10000FBE0F901F90189580FFF7CF8091E200D6
:100A20008E7E80618093E2008091E1008E7E8093D3
:100A3000E10080914E018E7E8160E5CF1F920F9282
:100A40000FB60F921124CF92DF92EF92FF920F9385
:100A50001F932F933F934F935F936F937F938F9346
:100A60009F93AF93BF93EF93FF93CF93DF93CDB754
:100A7000DEB76C97DEBFCDBF1092E9008091E80031
:100A800083FF25C068E0CE0145960E94930282EF65
:100A90008093E8008D8987FF39C09091E80090FF2E
:100AA000FCCF982F907609F034C19E894F89588DDC
:100AB0002F89F88C911131C0803861F58091400107
:100AC0008093F1001092F1008EEF8093E8006C9615
:100AD0000FB6F894DEBF0FBECDBFDF91CF91FF916F
:100AE000EF91BF91AF919F918F917F916F915F91A6
:100AF0004F913F912F911F910F91FF90EF90DF90B9
:100B0000CF900F900FBE0F901F9018959EEF90936F
:100B1000E800C7CF1092F100D5CF913059F4811180
:100B2000D3CF4130510581F6809140018D7F809374
:100B30004001CACF933049F48111C6CF41305105ED
:100B400019F6809140018260F2CF953041F4809196
:100B5000E80080FFFCCF20682093E300B5CF9630FB
:100B600009F0A9C00B8D1C8D22E01092E9001092B3
:100B70003E0110923D01F2122EC010923C011092E3
:100B80003B010E9462021F8299E09983FA8291E000
:100B90009E8390EA98879AEF998720913D01309142
:100BA0003E01275F3F4F3C832B838D831092E900EA
:100BB00010923E0110923D0110933C0100933B01C5
:100BC00049E050E0BE016F5F7F4F80E00E943C0231
:100BD0000E94620279CF10933C0100933B010E9476
:100BE000C701DC0112960D911C910115110509F444
:100BF0003BC1D801ED91FC910480F581E02DBE014F
:100C00006B5E7F4FC8010995009709F028C1F80174
:100C100000851185EACFF3E0FF120EC08F8988238B
:100C200009F440C0823061F440E86CE08CE291E06D
:100C30000E940902811148CF81E28093EB0047CFE7
:100C4000813029F440E86BE080E291E0F1CF83301D
:100C500099F70E94C701DC011296ED90FC908E017D
:100C60000F5F1F4F6801E114F10479F0D701ED9196
:100C7000FC910680F781E02DB801C7010995080FA6
:100C8000111DF701E084F184EECFD8011C92F6012A
:100C900001900020E9F73197BF016C197D0940E010
:100CA000C601C6CF6AE071E0FB01449150E080E8E4
:100CB0000E943C0209CF973009F4BECF983021F44E
:100CC00081E08093F10000CF993009F0FDCE837070
:100CD00009F0B2CFE9E1F1E081E031E096E3219162
:100CE000222371F08093E9003093EB00DF0111972C
:100CF0002C912093EC009093ED008F5F873079F773
:100D00008EE78093EA001092EA008F898093A00119
:100D1000DBCE8B8D9C8D1092E90010923E011092DB
:100D20003D0190933C0180933B01898D81117DC0F1
:100D30008E899D89913A49F4813209F07DCF47E04F
:100D400050E066E071E080E0B3CF913209F074CFFB
:100D5000833269F48F89988DB0E0A0E0809302011E
:100D600090930301A0930401B0930501ADCE8032AE
:100D700009F080C08091E80082FFFCCF67E086E048
:100D800091E00E9493028BEF8093E80080913F01F5
:100D9000E0E0F8E0882311F0EEEFFAE08091060140
:100DA00090910701A0910801B0910901803B944006
:100DB000A105B105B9F480910D0180FD13C0EE3F8E
:100DC0008AE0F80721F587E797E79183808388E138
:100DD0009BE00FB6F894A895809360000FBE9093A7
:100DE000600072CE0FB6F894A8958091600088617B
:100DF00080936000109260000FBEA895EE3FAAE0BD
:100E0000FA0761F41092FF0A1092FE0A5DCE80810B
:100E100091819093FF0A8093FE0AD5CF8091FE0ABC
:100E20009091FF0A918380834FCE0E94C701FC01FD
:100E3000028113810115110509F4FECED801ED914F
:100E4000FC910190F081E02DBE016B5E7F4FC801E7
:100E50000995811139CEF80100851185EBCF18165F
:100E600019060CF431CEE8CEF1E0FF12D4CE6EE0DC
:100E700071E01ACF823209F027CE8F8980930D015D
:100E800085CF1F920F920FB60F9211242F933F938D
:100E90004F935F936F937F938F939F93AF93BF9382
:100EA000EF93FF93E0911601F09117010995FF91DF
:100EB000EF91BF91AF919F918F917F916F915F91D2
:100EC0004F913F912F910F900FBE0F901F9018954B
:100ED0001F920F920FB60F9211242F933F934F93AF
:100EE0005F936F937F938F939F93AF93BF93EF9392
:100EF000FF93E0911401F09115010995FF91EF9195
:100F0000BF91AF919F918F917F916F915F914F9121
:100F10003F912F910F900FBE0F901F9018951F9229
:100F20000F920FB60F9211242F933F934F935F931D
:100F30006F937F938F939F93AF93BF93EF93FF93A1
:100F4000E0911201F09113010995FF91EF91BF918A
:100F5000AF919F918F917F916F915F914F913F9151
:100F60002F910F900FBE0F901F9018951F920F9208
:100F70000FB60F9211242F933F934F935F936F936C
:100F80007F938F939F93AF93BF93EF93FF93E091E2
:100F90001001F09111010995FF91EF91BF91AF916F
:100FA0009F918F917F916F915F914F913F912F9181
:100FB0000F900FBE0F901F9018951F920F920FB6B3
:100FC0000F9211242F933F934F935F936F937F93CF
:100FD0008F939F93AF93BF93EF93FF93E0910E0195
:100FE000F0910F010995FF91EF91BF91AF919F9102
:100FF0008F917F916F915F914F913F912F910F90C2
:101000000FBE0F901F9018951F920F920FB60F9260
:1010100011242F933F938F939F93AF93BF9380910E
:10102000330190913401A0913501B0913601309196
:10103000320123E0230F2D3758F50196A11DB11D74
:10104000209332018093330190933401A0933501B2
:10105000B09336018091370190913801A091390108
:10106000B0913A010196A11DB11D80933701909373
:101070003801A0933901B0933A01BF91AF919F918C
:101080008F913F912F910F900FBE0F901F90189549
:1010900026E8230F0296A11DB11DD2CFEFE4F1E0A7
:1010A0001382128288EE93E0A0E0B0E084839583FF
:1010B000A683B78383E291E0918380838FEF9FEFD4
:1010C0009587848708950E947D031092A001109255
:1010D000400110924E018091D70081608093D7002B
:1010E00080EA8093D80089B5806189BD89B5826026
:1010F00089BD09B400FEFDCF61E070E080E090E0C2
:101100000E94F8038091D8008F7C80618093D80082
:101110008091E000807F8093E0008091E1008E7EEE
:101120008093E1008DE08093E200559A209AEEEFE3
:10113000FFE7859194918B3F9C4D19F481E080935A
:101140003F0160E080E00E9411030E94FD0061E029
:1011500082E00E944C0361E083E00E944C0361E066
:1011600084E00E944C0360E089E00E944C0361E04F
:1011700089E00E94110361E08AE00E944C0361E073
:1011800082E00E941103809100019091010101977A
:1011900039F40E94ED029093010180930001F3CF96
:1011A00060E082E00E94110361E083E00E9411038D
:1011B000CCE0D0E008E512E061E08AE00E94110393
:1011C00069E170E080E090E00E94F80360E08AE06E
:1011D0000E94110369E170E080E090E00E94F80352
:1011E0000150110949F760EC74ED81E090E00E9434
:1011F000F8032197F9F660E08AE00E94110360E0AD
:1012000083E00E94110361E084E00E941103FFCF9C
:10121000F8940C941109EE0FFF1F0590F491E02D46
:061220000994F894FFCFD1
:101226000100FFFFFFFF00E1000000000000A00238
:10123600A002A002A002A00200C18081000000005E
:1012460000000046012A0467015C01AD016B0189BB
:02125600010095
:00000001FF
